{
  "contractName": "Auction",
  "abi": [
    {
      "inputs": [],
      "payable": true,
      "stateMutability": "payable",
      "type": "constructor"
    },
    {
      "constant": true,
      "inputs": [],
      "name": "beneficiary",
      "outputs": [
        {
          "internalType": "address",
          "name": "",
          "type": "address"
        }
      ],
      "payable": false,
      "stateMutability": "view",
      "type": "function"
    },
    {
      "constant": true,
      "inputs": [
        {
          "internalType": "uint256",
          "name": "",
          "type": "uint256"
        }
      ],
      "name": "items",
      "outputs": [
        {
          "internalType": "uint256",
          "name": "itemId",
          "type": "uint256"
        }
      ],
      "payable": false,
      "stateMutability": "view",
      "type": "function"
    },
    {
      "constant": true,
      "inputs": [
        {
          "internalType": "uint256",
          "name": "",
          "type": "uint256"
        }
      ],
      "name": "winners",
      "outputs": [
        {
          "internalType": "address",
          "name": "",
          "type": "address"
        }
      ],
      "payable": false,
      "stateMutability": "view",
      "type": "function"
    },
    {
      "constant": false,
      "inputs": [],
      "name": "register",
      "outputs": [],
      "payable": true,
      "stateMutability": "payable",
      "type": "function"
    },
    {
      "constant": false,
      "inputs": [
        {
          "internalType": "uint256",
          "name": "_itemId",
          "type": "uint256"
        },
        {
          "internalType": "uint256",
          "name": "_count",
          "type": "uint256"
        }
      ],
      "name": "bid",
      "outputs": [],
      "payable": true,
      "stateMutability": "payable",
      "type": "function"
    },
    {
      "constant": false,
      "inputs": [],
      "name": "revealWinners",
      "outputs": [],
      "payable": false,
      "stateMutability": "nonpayable",
      "type": "function"
    },
    {
      "constant": true,
      "inputs": [
        {
          "internalType": "uint256",
          "name": "id",
          "type": "uint256"
        }
      ],
      "name": "getPersonDetails",
      "outputs": [
        {
          "internalType": "uint256",
          "name": "",
          "type": "uint256"
        },
        {
          "internalType": "uint256",
          "name": "",
          "type": "uint256"
        },
        {
          "internalType": "address",
          "name": "",
          "type": "address"
        }
      ],
      "payable": false,
      "stateMutability": "view",
      "type": "function"
    }
  ],
  "bytecode": "0x6080604052600060175533601660006101000a81548173ffffffffffffffffffffffffffffffffffffffff021916908373ffffffffffffffffffffffffffffffffffffffff160217905550606060405180604001604052806000815260200182815250600d60006003811061007057fe5b6002020160008201518160000155602082015181600101908051906020019061009a929190610148565b5090505060405180604001604052806001815260200182815250600d6001600381106100c257fe5b600202016000820151816000015560208201518160010190805190602001906100ec929190610148565b5090505060405180604001604052806002815260200182815250600d60026003811061011457fe5b6002020160008201518160000155602082015181600101908051906020019061013e929190610148565b50905050506101ba565b828054828255906000526020600020908101928215610184579160200282015b82811115610183578251825591602001919060010190610168565b5b5090506101919190610195565b5090565b6101b791905b808211156101b357600081600090555060010161019b565b5090565b90565b6108a2806101c96000396000f3fe6080604052600436106100705760003560e01c8063609817051161004e578063609817051461010e578063952587d614610197578063a2fb1175146101ae578063bfb231d21461022957610070565b80631aa3a0081461007557806338af3eed1461007f578063598647f8146100d6575b600080fd5b61007d610278565b005b34801561008b57600080fd5b506100946103e9565b604051808273ffffffffffffffffffffffffffffffffffffffff1673ffffffffffffffffffffffffffffffffffffffff16815260200191505060405180910390f35b61010c600480360360408110156100ec57600080fd5b81019080803590602001909291908035906020019092919050505061040f565b005b34801561011a57600080fd5b506101476004803603602081101561013157600080fd5b8101908080359060200190929190505050610643565b604051808481526020018381526020018273ffffffffffffffffffffffffffffffffffffffff1673ffffffffffffffffffffffffffffffffffffffff168152602001935050505060405180910390f35b3480156101a357600080fd5b506101ac6106b4565b005b3480156101ba57600080fd5b506101e7600480360360208110156101d157600080fd5b8101908080359060200190929190505050610819565b604051808273ffffffffffffffffffffffffffffffffffffffff1673ffffffffffffffffffffffffffffffffffffffff16815260200191505060405180910390f35b34801561023557600080fd5b506102626004803603602081101561024c57600080fd5b810190808035906020019092919050505061084c565b6040518082815260200191505060405180910390f35b60175460016017546004811061028a57fe5b6003020160010181905550336001601754600481106102a557fe5b6003020160020160006101000a81548173ffffffffffffffffffffffffffffffffffffffff021916908373ffffffffffffffffffffffffffffffffffffffff16021790555060056001601754600481106102fb57fe5b600302016000018190555060016017546004811061031557fe5b600302016000803373ffffffffffffffffffffffffffffffffffffffff1673ffffffffffffffffffffffffffffffffffffffff16815260200190815260200160002060008201548160000155600182015481600101556002820160009054906101000a900473ffffffffffffffffffffffffffffffffffffffff168160020160006101000a81548173ffffffffffffffffffffffffffffffffffffffff021916908373ffffffffffffffffffffffffffffffffffffffff160217905550905050601760008154809291906001019190505550565b601660009054906101000a900473ffffffffffffffffffffffffffffffffffffffff1681565b806000803373ffffffffffffffffffffffffffffffffffffffff1673ffffffffffffffffffffffffffffffffffffffff1681526020019081526020016000206000015410806104a0575060008060003373ffffffffffffffffffffffffffffffffffffffff1673ffffffffffffffffffffffffffffffffffffffff1681526020019081526020016000206000015411155b806104ab5750600282115b156104b557600080fd5b6000816000803373ffffffffffffffffffffffffffffffffffffffff1673ffffffffffffffffffffffffffffffffffffffff16815260200190815260200160002060000154039050806000803373ffffffffffffffffffffffffffffffffffffffff1673ffffffffffffffffffffffffffffffffffffffff168152602001908152602001600020600001819055508060016000803373ffffffffffffffffffffffffffffffffffffffff1673ffffffffffffffffffffffffffffffffffffffff168152602001908152602001600020600101546004811061059257fe5b60030201600001819055506000600d84600381106105ac57fe5b60020201905060008090505b8381101561063c57816001016000803373ffffffffffffffffffffffffffffffffffffffff1673ffffffffffffffffffffffffffffffffffffffff16815260200190815260200160002060010154908060018154018082558091505090600182039060005260206000200160009091929091909150555080806001019150506105b8565b5050505050565b60008060006001846004811061065557fe5b60030201600001546001856004811061066a57fe5b60030201600101546001866004811061067f57fe5b6003020160020160009054906101000a900473ffffffffffffffffffffffffffffffffffffffff169250925092509193909250565b601660009054906101000a900473ffffffffffffffffffffffffffffffffffffffff1673ffffffffffffffffffffffffffffffffffffffff163373ffffffffffffffffffffffffffffffffffffffff161461070e57600080fd5b60008090505b6003811015610816576000600d826003811061072c57fe5b600202019050600081600101805490501461080857600081600101805490508260010180549050438161075b57fe5b048161076357fe5b069050600082600101828154811061077757fe5b906000526020600020015490506001816004811061079157fe5b6003020160020160009054906101000a900473ffffffffffffffffffffffffffffffffffffffff16601385600381106107c657fe5b0160006101000a81548173ffffffffffffffffffffffffffffffffffffffff021916908373ffffffffffffffffffffffffffffffffffffffff16021790555050505b508080600101915050610714565b50565b6013816003811061082657fe5b016000915054906101000a900473ffffffffffffffffffffffffffffffffffffffff1681565b600d816003811061085957fe5b60020201600091509050806000015490508156fea265627a7a72315820fe74cbeb56bb7961a932003e8bf577e116ec90f6e4e018005936eff3cc3a722d64736f6c63430005100032",
  "source": "pragma solidity 0.5.16;\ncontract Auction {\n    \n    // Data\n    //Structure to hold details of the item\n    struct Item {\n        uint itemId; // id of the item\n        uint[] itemTokens;  //tokens bid in favor of the item\n       \n    }\n    \n   //Structure to hold the details of a persons\n    struct Person {\n        uint remainingTokens; // tokens remaining with bidder\n        uint personId; // it serves as tokenId as well\n        address addr;//address of the bidder\n    }\n \n    mapping(address => Person) tokenDetails; //address to person \n    Person [4] bidders;//Array containing 4 person objects\n    \n    Item [3] public items;//Array containing 3 item objects\n    address[3] public winners;//Array for address of winners\n    address public beneficiary;//owner of the smart contract\n    \n    uint bidderCount=0;//counter\n\n    //constructor\n\n    constructor() public payable { \n\n            //Part 1 Task 1. Initialize beneficiary with address of smart contract’s owner\n        //Hint. In the constructor,\"msg.sender\" is the address of the owner.\n        // ** Start code here. 1 line approximately. **/\n        beneficiary = msg.sender;\n          //** End code here. **/\n        uint[] memory emptyArray;\n        items[0] = Item({itemId:0,itemTokens:emptyArray});\n        \n        //Part 1 Task 2. Initialize two items with at index 1 and 2. \n        // ** Start code here. 2 lines approximately. **/\n        items[1] = Item({itemId:1,itemTokens:emptyArray});\n        items[2] = Item({itemId:2,itemTokens:emptyArray});\n        //** End code here**/\n\n        }\n   \n\n    function register() public payable{\n        \n        \n        bidders[bidderCount].personId = bidderCount;\n        \n        //Part 1 Task 3. Initialize the address of the bidder \n        /*Hint. Here the bidders[bidderCount].addr should be initialized with address of the registrant.*/\n\n        // ** Start code here. 1 line approximately. **/\n        bidders[bidderCount].addr = msg.sender;\n        //** End code here. **\n        \n        bidders[bidderCount].remainingTokens = 5; // only 5 tokens\n        tokenDetails[msg.sender]=bidders[bidderCount];\n        bidderCount++;\n    }\n    \n    function bid(uint _itemId, uint _count) public payable{\n        /*\n            Bids tokens to a particular item.\n            Arguments:\n            _itemId -- uint, id of the item\n            _count -- uint, count of tokens to bid for the item\n        */\n        \n        /*\n        Part 1 Task 4. Implement the three conditions below.\n            4.1 If the number of tokens remaining with the bidder is < count of tokens bidded, revert.\n            4.2 If there are no tokens remaining with the bidder, revert.\n            4.3 If the id of the item for which bid is placed, is greater than 2, revert.\n\n        Hint: \"tokenDetails[msg.sender].remainingTokens\" gives the details of the number of tokens remaining with the bidder.\n        */\n        \n        // ** Start code here. 2 lines approximately. **/\n        if(tokenDetails[msg.sender].remainingTokens < _count || tokenDetails[msg.sender].remainingTokens <= 0 || _itemId > 2 ){\n            revert();\n        }\n        //** End code here. **\n        \n        /*Part 1 Task 5. Decrement the remainingTokens by the number of tokens bid and store the value in balance variable.\n        Hint. \"tokenDetails[msg.sender].remainingTokens\" should be decremented by \"_count\". */\n \n        // ** Start code here. 1 line approximately. **\n        uint balance= tokenDetails[msg.sender].remainingTokens - _count;\n        //** End code here. **\n        \n        tokenDetails[msg.sender].remainingTokens=balance;\n        bidders[tokenDetails[msg.sender].personId].remainingTokens=balance;//updating the same balance in bidders map.\n        \n        Item storage bidItem = items[_itemId];\n        for(uint i=0; i<_count;i++) {\n            bidItem.itemTokens.push(tokenDetails[msg.sender].personId);    \n        }\n    }\n    \n    // Part 2 Task 1. Create a modifier named \"onlyOwner\" to ensure that only owner is allowed to reveal winners\n    //Hint : Use require to validate if \"msg.sender\" is equal to the \"beneficiary\".\n    modifier onlyOwner {\n        // ** Start code here. 2 lines approximately. **\n        require(msg.sender == beneficiary);\n        _;\n        //** End code here. **\n    }\n    \n    \n    function revealWinners() public onlyOwner{\n        \n        /* \n            Iterate over all the items present in the auction.\n            If at least on person has placed a bid, randomly select          the winner */\n\n        for (uint id = 0; id < 3; id++) {\n            Item storage currentItem=items[id];\n            if(currentItem.itemTokens.length != 0){\n            // generate random# from block number \n            uint randomIndex = (block.number / currentItem.itemTokens.length)% currentItem.itemTokens.length; \n            // Obtain the winning tokenId\n\n            uint winnerId = currentItem.itemTokens[randomIndex];\n                \n            /* Part 1 Task 6. Assign the winners.\n            Hint.\" bidders[winnerId] \" will give you the person object with the winnerId.\n            you need to assign the address of the person obtained above to winners[id] */\n\n            // ** Start coding here *** 1 line approximately.\n            winners[id] = bidders[winnerId].addr;\n                    \n            //** end code here*\n                \n            }\n        }\n    } \n\n  //Miscellaneous methods: Below methods are used to assist Grading. Please DONOT CHANGE THEM.\n    function getPersonDetails(uint id) public view returns(uint,uint,address){\n        return (bidders[id].remainingTokens,bidders[id].personId,bidders[id].addr);\n    }\n\n}\n",
  "sourcePath": "/home/kali/Desktop/Blockchain_TP/TD4/contracts/Auction.sol",
  "compiler": {
    "name": "solc",
    "version": "0.5.16+commit.9c3226ce.Emscripten.clang"
  },
  "schemaVersion": "3.3.3",
  "updatedAt": "2021-02-06T10:33:09.421Z",
  "devdoc": {
    "methods": {}
  },
  "userdoc": {
    "methods": {}
  }
}